{
  "_format": "hh-sol-artifact-1",
  "contractName": "IdDb",
  "sourceName": "contracts/idDb.sol",
  "abi": [
    {
      "inputs": [],
      "stateMutability": "nonpayable",
      "type": "constructor"
    },
    {
      "inputs": [
        {
          "internalType": "string",
          "name": "name",
          "type": "string"
        }
      ],
      "name": "InvalidName",
      "type": "error"
    },
    {
      "inputs": [
        {
          "internalType": "string",
          "name": "",
          "type": "string"
        }
      ],
      "name": "domains",
      "outputs": [
        {
          "internalType": "address",
          "name": "",
          "type": "address"
        }
      ],
      "stateMutability": "view",
      "type": "function"
    },
    {
      "inputs": [
        {
          "internalType": "address",
          "name": "",
          "type": "address"
        }
      ],
      "name": "infodb",
      "outputs": [
        {
          "internalType": "string",
          "name": "name",
          "type": "string"
        }
      ],
      "stateMutability": "view",
      "type": "function"
    },
    {
      "inputs": [],
      "name": "owner",
      "outputs": [
        {
          "internalType": "address payable",
          "name": "",
          "type": "address"
        }
      ],
      "stateMutability": "view",
      "type": "function"
    },
    {
      "inputs": [
        {
          "internalType": "string",
          "name": "name",
          "type": "string"
        }
      ],
      "name": "price",
      "outputs": [
        {
          "internalType": "uint256",
          "name": "",
          "type": "uint256"
        }
      ],
      "stateMutability": "pure",
      "type": "function"
    },
    {
      "inputs": [
        {
          "internalType": "string",
          "name": "name",
          "type": "string"
        }
      ],
      "name": "registerDomain",
      "outputs": [],
      "stateMutability": "payable",
      "type": "function"
    },
    {
      "inputs": [
        {
          "internalType": "string",
          "name": "name",
          "type": "string"
        }
      ],
      "name": "valid",
      "outputs": [
        {
          "internalType": "bool",
          "name": "",
          "type": "bool"
        }
      ],
      "stateMutability": "pure",
      "type": "function"
    },
    {
      "inputs": [
        {
          "internalType": "address",
          "name": "",
          "type": "address"
        }
      ],
      "name": "verifiedAddresses",
      "outputs": [
        {
          "internalType": "bool",
          "name": "",
          "type": "bool"
        }
      ],
      "stateMutability": "view",
      "type": "function"
    },
    {
      "inputs": [
        {
          "internalType": "string",
          "name": "",
          "type": "string"
        }
      ],
      "name": "verifiedDomains",
      "outputs": [
        {
          "internalType": "bool",
          "name": "",
          "type": "bool"
        }
      ],
      "stateMutability": "view",
      "type": "function"
    },
    {
      "inputs": [
        {
          "internalType": "string",
          "name": "dname",
          "type": "string"
        },
        {
          "internalType": "string",
          "name": "_name",
          "type": "string"
        }
      ],
      "name": "verify",
      "outputs": [],
      "stateMutability": "nonpayable",
      "type": "function"
    },
    {
      "inputs": [],
      "name": "withdraw",
      "outputs": [],
      "stateMutability": "nonpayable",
      "type": "function"
    },
    {
      "stateMutability": "payable",
      "type": "receive"
    }
  ],
  "bytecode": "0x608060405234801561001057600080fd5b50600080546001600160a01b03191633179055610f2b806100326000396000f3fe6080604052600436106100955760003560e01c8063a50cce5011610059578063a50cce5014610186578063a5cad08a146101b6578063cf48e234146101c9578063d4784dbf14610204578063fe2c61981461023157600080fd5b806326449235146100a15780633ccfd60b146100ff5780638da5cb5b146101165780639791c097146101365780639deb17f51461016657600080fd5b3661009c57005b600080fd5b3480156100ad57600080fd5b506100e26100bc366004610aaa565b80516020818301810180516003825292820191909301209152546001600160a01b031681565b6040516001600160a01b0390911681526020015b60405180910390f35b34801561010b57600080fd5b5061011461025f565b005b34801561012257600080fd5b506000546100e2906001600160a01b031681565b34801561014257600080fd5b50610156610151366004610ba4565b610330565b60405190151581526020016100f6565b34801561017257600080fd5b50610114610181366004610be6565b6103c9565b34801561019257600080fd5b506101566101a1366004610c52565b60016020526000908152604090205460ff1681565b6101146101c4366004610ba4565b61066b565b3480156101d557600080fd5b506101566101e4366004610aaa565b805160208183018101805160028252928201919093012091525460ff1681565b34801561021057600080fd5b5061022461021f366004610c52565b6107ef565b6040516100f69190610c82565b34801561023d57600080fd5b5061025161024c366004610ba4565b61088d565b6040519081526020016100f6565b6000546001600160a01b031633146102925760405162461bcd60e51b815260040161028990610cd0565b60405180910390fd5b6040514790600090339083908381818185875af1925050503d80600081146102d6576040519150601f19603f3d011682016040523d82523d6000602084013e6102db565b606091505b505090508061032c5760405162461bcd60e51b815260206004820152601960248201527f4661696c656420746f2077697468647261772066756e647321000000000000006044820152606401610289565b5050565b6000600361037384848080601f01602080910402602001604051908101604052809392919081815260200183838082843760009201919091525061099192505050565b101580156103c05750600f6103bd84848080601f01602080910402602001604051908101604052809392919081815260200183838082843760009201919091525061099192505050565b11155b90505b92915050565b6000546001600160a01b031633146103f35760405162461bcd60e51b815260040161028990610cd0565b60006001600160a01b031660038585604051610410929190610d15565b908152604051908190036020019020546001600160a01b03160361046e5760405162461bcd60e51b8152602060048201526015602482015274111bdb585a5b88139bdd08149959da5cdd195c9959605a1b6044820152606401610289565b6001600060038686604051610484929190610d15565b9081526040805160209281900383019020546001600160a01b0316835290820192909252016000205460ff16156104f05760405162461bcd60e51b815260206004820152601060248201526f105b1c9958591e481d995c9a599a595960821b6044820152606401610289565b60028484604051610502929190610d15565b9081526040519081900360200190205460ff16156105555760405162461bcd60e51b815260206004820152601060248201526f105b1c9958591e481d995c9a599a595960821b6044820152606401610289565b604080516020601f840181900481028201830183528101838152909182919085908590819085018382808284376000920182905250939094525050604051600492506003906105a79089908990610d15565b9081526040805160209281900383019020546001600160a01b031683529082019290925201600020815181906105dd9082610dae565b509050506001806000600387876040516105f8929190610d15565b9081526040805160209281900383019020546001600160a01b03168352908201929092528101600020805460ff191692151592909217909155516001906002906106459087908790610d15565b908152604051908190036020019020805491151560ff1990921691909117905550505050565b610675828261088d565b3410156106bc5760405162461bcd60e51b81526020600482015260156024820152744e6f7420656e6f756768206665657320706169642160581b6044820152606401610289565b60006001600160a01b0316600383836040516106d9929190610d15565b908152604051908190036020019020546001600160a01b0316146107375760405162461bcd60e51b8152602060048201526015602482015274446f6d61696e20416c72656164792065786973747360581b6044820152606401610289565b6107418282610330565b610762578181604051637f19f48d60e01b8152600401610289929190610e6e565b3360038383604051610775929190610d15565b908152604080516020928190038301812080546001600160a01b0319166001600160a01b03959095169490941790935533600090815260019092528120805460ff19169055906002906107cb9085908590610d15565b908152604051908190036020019020805491151560ff199092169190911790555050565b60046020526000908152604090208054819061080a90610d25565b80601f016020809104026020016040519081016040528092919081815260200182805461083690610d25565b80156108835780601f1061085857610100808354040283529160200191610883565b820191906000526020600020905b81548152906001019060200180831161086657829003601f168201915b5050505050905081565b6000806108cf84848080601f01602080910402602001604051908101604052809392919081815260200183838082843760009201919091525061099192505050565b9050600081116109215760405162461bcd60e51b815260206004820152601f60248201527f446f6d61696e204e616d652063616e6e6f74206265206c656674204e554c4c006044820152606401610289565b80600203610939576611c37937e080009150506103c3565b8060030361095157660e35fa931a00009150506103c3565b8060040361096957660aa87bee5380009150506103c3565b806005036109815766071afd498d00009150506103c3565b66038d7ea4c680009150506103c3565b8051600090819081905b80821015610a8b5760008583815181106109b7576109b7610e9d565b01602001516001600160f81b0319169050600160ff1b8110156109e6576109df600184610ec9565b9250610a78565b600760fd1b6001600160f81b031982161015610a07576109df600284610ec9565b600f60fc1b6001600160f81b031982161015610a28576109df600384610ec9565b601f60fb1b6001600160f81b031982161015610a49576109df600484610ec9565b603f60fa1b6001600160f81b031982161015610a6a576109df600584610ec9565b610a75600684610ec9565b92505b5082610a8381610edc565b93505061099b565b50909392505050565b634e487b7160e01b600052604160045260246000fd5b600060208284031215610abc57600080fd5b813567ffffffffffffffff80821115610ad457600080fd5b818401915084601f830112610ae857600080fd5b813581811115610afa57610afa610a94565b604051601f8201601f19908116603f01168101908382118183101715610b2257610b22610a94565b81604052828152876020848701011115610b3b57600080fd5b826020860160208301376000928101602001929092525095945050505050565b60008083601f840112610b6d57600080fd5b50813567ffffffffffffffff811115610b8557600080fd5b602083019150836020828501011115610b9d57600080fd5b9250929050565b60008060208385031215610bb757600080fd5b823567ffffffffffffffff811115610bce57600080fd5b610bda85828601610b5b565b90969095509350505050565b60008060008060408587031215610bfc57600080fd5b843567ffffffffffffffff80821115610c1457600080fd5b610c2088838901610b5b565b90965094506020870135915080821115610c3957600080fd5b50610c4687828801610b5b565b95989497509550505050565b600060208284031215610c6457600080fd5b81356001600160a01b0381168114610c7b57600080fd5b9392505050565b600060208083528351808285015260005b81811015610caf57858101830151858201604001528201610c93565b506000604082860101526040601f19601f8301168501019250505092915050565b60208082526025908201527f4f6e6c79204f776e65722063616e20706572666f726d20746869732066756e6360408201526474696f6e2160d81b606082015260800190565b8183823760009101908152919050565b600181811c90821680610d3957607f821691505b602082108103610d5957634e487b7160e01b600052602260045260246000fd5b50919050565b601f821115610da957600081815260208120601f850160051c81016020861015610d865750805b601f850160051c820191505b81811015610da557828155600101610d92565b5050505b505050565b815167ffffffffffffffff811115610dc857610dc8610a94565b610ddc81610dd68454610d25565b84610d5f565b602080601f831160018114610e115760008415610df95750858301515b600019600386901b1c1916600185901b178555610da5565b600085815260208120601f198616915b82811015610e4057888601518255948401946001909101908401610e21565b5085821015610e5e5787850151600019600388901b60f8161c191681555b5050505050600190811b01905550565b60208152816020820152818360408301376000818301604090810191909152601f909201601f19160101919050565b634e487b7160e01b600052603260045260246000fd5b634e487b7160e01b600052601160045260246000fd5b808201808211156103c3576103c3610eb3565b600060018201610eee57610eee610eb3565b506001019056fea2646970667358221220ca6f21c4d540ab0277fc3e022b0df0ac30fe9f55e3dff4d7ef09d9a7fc734df664736f6c63430008120033",
  "linkReferences": {},
  "deployedLinkReferences": {}
}